{
  "_format": "hh-sol-artifact-1",
  "contractName": "NFTMarket",
  "sourceName": "contracts/NFTMarket.sol",
  "abi": [
    {
      "inputs": [],
      "stateMutability": "nonpayable",
      "type": "constructor"
    },
    {
      "anonymous": false,
      "inputs": [
        {
          "indexed": true,
          "internalType": "address",
          "name": "owner",
          "type": "address"
        },
        {
          "indexed": true,
          "internalType": "address",
          "name": "approved",
          "type": "address"
        },
        {
          "indexed": true,
          "internalType": "uint256",
          "name": "tokenId",
          "type": "uint256"
        }
      ],
      "name": "Approval",
      "type": "event"
    },
    {
      "anonymous": false,
      "inputs": [
        {
          "indexed": true,
          "internalType": "address",
          "name": "owner",
          "type": "address"
        },
        {
          "indexed": true,
          "internalType": "address",
          "name": "operator",
          "type": "address"
        },
        {
          "indexed": false,
          "internalType": "bool",
          "name": "approved",
          "type": "bool"
        }
      ],
      "name": "ApprovalForAll",
      "type": "event"
    },
    {
      "anonymous": false,
      "inputs": [
        {
          "indexed": false,
          "internalType": "uint256",
          "name": "tokenID",
          "type": "uint256"
        },
        {
          "indexed": false,
          "internalType": "address",
          "name": "from",
          "type": "address"
        },
        {
          "indexed": false,
          "internalType": "address",
          "name": "to",
          "type": "address"
        },
        {
          "indexed": false,
          "internalType": "string",
          "name": "tokenURI",
          "type": "string"
        },
        {
          "indexed": false,
          "internalType": "uint256",
          "name": "price",
          "type": "uint256"
        }
      ],
      "name": "NFTTransfer",
      "type": "event"
    },
    {
      "anonymous": false,
      "inputs": [
        {
          "indexed": true,
          "internalType": "address",
          "name": "previousOwner",
          "type": "address"
        },
        {
          "indexed": true,
          "internalType": "address",
          "name": "newOwner",
          "type": "address"
        }
      ],
      "name": "OwnershipTransferred",
      "type": "event"
    },
    {
      "anonymous": false,
      "inputs": [
        {
          "indexed": true,
          "internalType": "address",
          "name": "from",
          "type": "address"
        },
        {
          "indexed": true,
          "internalType": "address",
          "name": "to",
          "type": "address"
        },
        {
          "indexed": true,
          "internalType": "uint256",
          "name": "tokenId",
          "type": "uint256"
        }
      ],
      "name": "Transfer",
      "type": "event"
    },
    {
      "inputs": [
        {
          "internalType": "address",
          "name": "to",
          "type": "address"
        },
        {
          "internalType": "uint256",
          "name": "tokenId",
          "type": "uint256"
        }
      ],
      "name": "approve",
      "outputs": [],
      "stateMutability": "nonpayable",
      "type": "function"
    },
    {
      "inputs": [
        {
          "internalType": "address",
          "name": "owner",
          "type": "address"
        }
      ],
      "name": "balanceOf",
      "outputs": [
        {
          "internalType": "uint256",
          "name": "",
          "type": "uint256"
        }
      ],
      "stateMutability": "view",
      "type": "function"
    },
    {
      "inputs": [
        {
          "internalType": "uint256",
          "name": "tokenID",
          "type": "uint256"
        }
      ],
      "name": "buyNFT",
      "outputs": [],
      "stateMutability": "payable",
      "type": "function"
    },
    {
      "inputs": [
        {
          "internalType": "uint256",
          "name": "tokenID",
          "type": "uint256"
        }
      ],
      "name": "cancelListing",
      "outputs": [],
      "stateMutability": "nonpayable",
      "type": "function"
    },
    {
      "inputs": [
        {
          "internalType": "string",
          "name": "tokenURI",
          "type": "string"
        }
      ],
      "name": "createNFT",
      "outputs": [],
      "stateMutability": "nonpayable",
      "type": "function"
    },
    {
      "inputs": [
        {
          "internalType": "uint256",
          "name": "tokenId",
          "type": "uint256"
        }
      ],
      "name": "getApproved",
      "outputs": [
        {
          "internalType": "address",
          "name": "",
          "type": "address"
        }
      ],
      "stateMutability": "view",
      "type": "function"
    },
    {
      "inputs": [
        {
          "internalType": "address",
          "name": "owner",
          "type": "address"
        },
        {
          "internalType": "address",
          "name": "operator",
          "type": "address"
        }
      ],
      "name": "isApprovedForAll",
      "outputs": [
        {
          "internalType": "bool",
          "name": "",
          "type": "bool"
        }
      ],
      "stateMutability": "view",
      "type": "function"
    },
    {
      "inputs": [
        {
          "internalType": "uint256",
          "name": "tokenID",
          "type": "uint256"
        },
        {
          "internalType": "uint256",
          "name": "price",
          "type": "uint256"
        }
      ],
      "name": "listNFT",
      "outputs": [],
      "stateMutability": "nonpayable",
      "type": "function"
    },
    {
      "inputs": [],
      "name": "name",
      "outputs": [
        {
          "internalType": "string",
          "name": "",
          "type": "string"
        }
      ],
      "stateMutability": "view",
      "type": "function"
    },
    {
      "inputs": [],
      "name": "owner",
      "outputs": [
        {
          "internalType": "address",
          "name": "",
          "type": "address"
        }
      ],
      "stateMutability": "view",
      "type": "function"
    },
    {
      "inputs": [
        {
          "internalType": "uint256",
          "name": "tokenId",
          "type": "uint256"
        }
      ],
      "name": "ownerOf",
      "outputs": [
        {
          "internalType": "address",
          "name": "",
          "type": "address"
        }
      ],
      "stateMutability": "view",
      "type": "function"
    },
    {
      "inputs": [],
      "name": "renounceOwnership",
      "outputs": [],
      "stateMutability": "nonpayable",
      "type": "function"
    },
    {
      "inputs": [
        {
          "internalType": "address",
          "name": "from",
          "type": "address"
        },
        {
          "internalType": "address",
          "name": "to",
          "type": "address"
        },
        {
          "internalType": "uint256",
          "name": "tokenId",
          "type": "uint256"
        }
      ],
      "name": "safeTransferFrom",
      "outputs": [],
      "stateMutability": "nonpayable",
      "type": "function"
    },
    {
      "inputs": [
        {
          "internalType": "address",
          "name": "from",
          "type": "address"
        },
        {
          "internalType": "address",
          "name": "to",
          "type": "address"
        },
        {
          "internalType": "uint256",
          "name": "tokenId",
          "type": "uint256"
        },
        {
          "internalType": "bytes",
          "name": "data",
          "type": "bytes"
        }
      ],
      "name": "safeTransferFrom",
      "outputs": [],
      "stateMutability": "nonpayable",
      "type": "function"
    },
    {
      "inputs": [
        {
          "internalType": "address",
          "name": "operator",
          "type": "address"
        },
        {
          "internalType": "bool",
          "name": "approved",
          "type": "bool"
        }
      ],
      "name": "setApprovalForAll",
      "outputs": [],
      "stateMutability": "nonpayable",
      "type": "function"
    },
    {
      "inputs": [
        {
          "internalType": "bytes4",
          "name": "interfaceId",
          "type": "bytes4"
        }
      ],
      "name": "supportsInterface",
      "outputs": [
        {
          "internalType": "bool",
          "name": "",
          "type": "bool"
        }
      ],
      "stateMutability": "view",
      "type": "function"
    },
    {
      "inputs": [],
      "name": "symbol",
      "outputs": [
        {
          "internalType": "string",
          "name": "",
          "type": "string"
        }
      ],
      "stateMutability": "view",
      "type": "function"
    },
    {
      "inputs": [
        {
          "internalType": "uint256",
          "name": "tokenId",
          "type": "uint256"
        }
      ],
      "name": "tokenURI",
      "outputs": [
        {
          "internalType": "string",
          "name": "",
          "type": "string"
        }
      ],
      "stateMutability": "view",
      "type": "function"
    },
    {
      "inputs": [
        {
          "internalType": "address",
          "name": "from",
          "type": "address"
        },
        {
          "internalType": "address",
          "name": "to",
          "type": "address"
        },
        {
          "internalType": "uint256",
          "name": "tokenId",
          "type": "uint256"
        }
      ],
      "name": "transferFrom",
      "outputs": [],
      "stateMutability": "nonpayable",
      "type": "function"
    },
    {
      "inputs": [
        {
          "internalType": "address",
          "name": "newOwner",
          "type": "address"
        }
      ],
      "name": "transferOwnership",
      "outputs": [],
      "stateMutability": "nonpayable",
      "type": "function"
    },
    {
      "inputs": [],
      "name": "withdrawFunds",
      "outputs": [],
      "stateMutability": "nonpayable",
      "type": "function"
    }
  ],
  "bytecode": "0x60806040523480156200001157600080fd5b5060408051808201825260128152714772616e64732e44696769616c204e46547360701b60208083019182528351808501909452600784526611cb910813919560ca1b9084015281519192916200006b91600091620000fa565b50805162000081906001906020840190620000fa565b5050506200009e62000098620000a460201b60201c565b620000a8565b620001dd565b3390565b600780546001600160a01b038381166001600160a01b0319831681179093556040519116919082907f8be0079c531659141344cd1fd0a4f28419497f9722a3daafe3b4186f6b6457e090600090a35050565b8280546200010890620001a0565b90600052602060002090601f0160209004810192826200012c576000855562000177565b82601f106200014757805160ff191683800117855562000177565b8280016001018555821562000177579182015b82811115620001775782518255916020019190600101906200015a565b506200018592915062000189565b5090565b5b808211156200018557600081556001016200018a565b600181811c90821680620001b557607f821691505b60208210811415620001d757634e487b7160e01b600052602260045260246000fd5b50919050565b611f1880620001ed6000396000f3fe60806040526004361061012a5760003560e01c806370a08231116100ab578063a22cb4651161006f578063a22cb4651461031e578063b88d4fde1461033e578063c87b56dd1461035e578063da2ed03e1461037e578063e985e9c51461039e578063f2fde38b146103e757600080fd5b806370a0823114610288578063715018a6146102b65780638da5cb5b146102cb57806394383f14146102e957806395d89b411461030957600080fd5b806324600fc3116100f257806324600fc314610200578063305a67a81461021557806342842e0e1461023557806351ed8288146102555780636352211e1461026857600080fd5b806301ffc9a71461012f57806306fdde0314610164578063081812fc14610186578063095ea7b3146101be57806323b872dd146101e0575b600080fd5b34801561013b57600080fd5b5061014f61014a3660046118c8565b610407565b60405190151581526020015b60405180910390f35b34801561017057600080fd5b50610179610459565b60405161015b919061193d565b34801561019257600080fd5b506101a66101a1366004611950565b6104eb565b6040516001600160a01b03909116815260200161015b565b3480156101ca57600080fd5b506101de6101d9366004611985565b610512565b005b3480156101ec57600080fd5b506101de6101fb3660046119af565b61062d565b34801561020c57600080fd5b506101de61065e565b34801561022157600080fd5b506101de610230366004611950565b6106e5565b34801561024157600080fd5b506101de6102503660046119af565b61083f565b6101de610263366004611950565b61085a565b34801561027457600080fd5b506101a6610283366004611950565b6109fc565b34801561029457600080fd5b506102a86102a33660046119eb565b610a5c565b60405190815260200161015b565b3480156102c257600080fd5b506101de610ae2565b3480156102d757600080fd5b506007546001600160a01b03166101a6565b3480156102f557600080fd5b506101de610304366004611a06565b610af6565b34801561031557600080fd5b50610179610bce565b34801561032a57600080fd5b506101de610339366004611a28565b610bdd565b34801561034a57600080fd5b506101de610359366004611a7a565b610be8565b34801561036a57600080fd5b50610179610379366004611950565b610c20565b34801561038a57600080fd5b506101de610399366004611b56565b610d31565b3480156103aa57600080fd5b5061014f6103b9366004611bc8565b6001600160a01b03918216600090815260056020908152604080832093909416825291909152205460ff1690565b3480156103f357600080fd5b506101de6104023660046119eb565b610dcc565b60006001600160e01b031982166380ac58cd60e01b148061043857506001600160e01b03198216635b5e139f60e01b145b8061045357506301ffc9a760e01b6001600160e01b03198316145b92915050565b60606000805461046890611bfb565b80601f016020809104026020016040519081016040528092919081815260200182805461049490611bfb565b80156104e15780601f106104b6576101008083540402835291602001916104e1565b820191906000526020600020905b8154815290600101906020018083116104c457829003601f168201915b5050505050905090565b60006104f682610e45565b506000908152600460205260409020546001600160a01b031690565b600061051d826109fc565b9050806001600160a01b0316836001600160a01b031614156105905760405162461bcd60e51b815260206004820152602160248201527f4552433732313a20617070726f76616c20746f2063757272656e74206f776e656044820152603960f91b60648201526084015b60405180910390fd5b336001600160a01b03821614806105ac57506105ac81336103b9565b61061e5760405162461bcd60e51b815260206004820152603d60248201527f4552433732313a20617070726f76652063616c6c6572206973206e6f7420746f60448201527f6b656e206f776e6572206f7220617070726f76656420666f7220616c6c0000006064820152608401610587565b6106288383610ea4565b505050565b6106373382610f12565b6106535760405162461bcd60e51b815260040161058790611c36565b610628838383610f90565b6106666110f4565b47806106b45760405162461bcd60e51b815260206004820152601a60248201527f4e46544d61726b65743a2062616c616e6365206973207a65726f0000000000006044820152606401610587565b604051339082156108fc029083906000818181858888f193505050501580156106e1573d6000803e3d6000fd5b5050565b600081815260096020908152604091829020825180840190935280548084526001909101546001600160a01b0316918301919091526107365760405162461bcd60e51b815260040161058790611c83565b60208101516001600160a01b031633146107925760405162461bcd60e51b815260206004820181905260248201527f4e46544d61726b65743a20796f75277265206e6f74207468652073656c6c65726044820152606401610587565b6040516323b872dd60e01b8152306004820181905233602483015260448201849052906323b872dd90606401600060405180830381600087803b1580156107d857600080fd5b505af11580156107ec573d6000803e3d6000fd5b50505060008381526009602052604080822082815560010180546001600160a01b031916905551600080516020611ec3833981519152925061083391859130913391611cc5565b60405180910390a15050565b61062883838360405180602001604052806000815250610be8565b600081815260096020908152604091829020825180840190935280548084526001909101546001600160a01b0316918301919091526108ab5760405162461bcd60e51b815260040161058790611c83565b805134146108fb5760405162461bcd60e51b815260206004820152601a60248201527f4e46544d61726b65743a20696e636f72726563742070726963650000000000006044820152606401610587565b6040516323b872dd60e01b8152306004820181905233602483015260448201849052906323b872dd90606401600060405180830381600087803b15801561094157600080fd5b505af1158015610955573d6000803e3d6000fd5b505050600083815260096020526040812090815560010180546001600160a01b03191690555080602001516001600160a01b03166108fc6109af60646109a9605f866000015161114e90919063ffffffff16565b90611161565b6040518115909202916000818181858888f193505050501580156109d7573d6000803e3d6000fd5b50600080516020611ec383398151915282303360006040516108339493929190611cc5565b6000818152600260205260408120546001600160a01b0316806104535760405162461bcd60e51b8152602060048201526018602482015277115490cdcc8c4e881a5b9d985b1a59081d1bdad95b88125160421b6044820152606401610587565b60006001600160a01b038216610ac65760405162461bcd60e51b815260206004820152602960248201527f4552433732313a2061646472657373207a65726f206973206e6f7420612076616044820152683634b21037bbb732b960b91b6064820152608401610587565b506001600160a01b031660009081526003602052604090205490565b610aea6110f4565b610af4600061116d565b565b60008111610b565760405162461bcd60e51b815260206004820152602760248201527f4e46544d61726b65743a207072696365206d75737420626520677265617465726044820152660207468616e20360cc1b6064820152608401610587565b610b6133308461062d565b60408051808201825282815233602080830182815260008781526009909252908490209251835551600190920180546001600160a01b0319166001600160a01b03909316929092179091559051600080516020611ec3833981519152916108339185919030908690611cc5565b60606001805461046890611bfb565b6106e13383836111bf565b610bf23383610f12565b610c0e5760405162461bcd60e51b815260040161058790611c36565b610c1a8484848461128e565b50505050565b6060610c2b82610e45565b60008281526006602052604081208054610c4490611bfb565b80601f0160208091040260200160405190810160405280929190818152602001828054610c7090611bfb565b8015610cbd5780601f10610c9257610100808354040283529160200191610cbd565b820191906000526020600020905b815481529060010190602001808311610ca057829003601f168201915b505050505090506000610cdb60408051602081019091526000815290565b9050805160001415610cee575092915050565b815115610d20578082604051602001610d08929190611cf9565b60405160208183030381529060405292505050919050565b610d29846112c1565b949350505050565b610d3f600880546001019055565b6000610d4a60085490565b9050610d563382611334565b610d968184848080601f01602080910402602001604051908101604052809392919081815260200183838082843760009201919091525061134e92505050565b600080516020611ec38339815191528160003386866000604051610dbf96959493929190611d28565b60405180910390a1505050565b610dd46110f4565b6001600160a01b038116610e395760405162461bcd60e51b815260206004820152602660248201527f4f776e61626c653a206e6577206f776e657220697320746865207a65726f206160448201526564647265737360d01b6064820152608401610587565b610e428161116d565b50565b6000818152600260205260409020546001600160a01b0316610e425760405162461bcd60e51b8152602060048201526018602482015277115490cdcc8c4e881a5b9d985b1a59081d1bdad95b88125160421b6044820152606401610587565b600081815260046020526040902080546001600160a01b0319166001600160a01b0384169081179091558190610ed9826109fc565b6001600160a01b03167f8c5be1e5ebec7d5bd14f71427d1e84f3dd0314c0f7b2291e5b200ac8c7c3b92560405160405180910390a45050565b600080610f1e836109fc565b9050806001600160a01b0316846001600160a01b03161480610f6557506001600160a01b0380821660009081526005602090815260408083209388168352929052205460ff165b80610d295750836001600160a01b0316610f7e846104eb565b6001600160a01b031614949350505050565b826001600160a01b0316610fa3826109fc565b6001600160a01b031614610fc95760405162461bcd60e51b815260040161058790611d82565b6001600160a01b03821661102b5760405162461bcd60e51b8152602060048201526024808201527f4552433732313a207472616e7366657220746f20746865207a65726f206164646044820152637265737360e01b6064820152608401610587565b826001600160a01b031661103e826109fc565b6001600160a01b0316146110645760405162461bcd60e51b815260040161058790611d82565b600081815260046020908152604080832080546001600160a01b03199081169091556001600160a01b0387811680865260038552838620805460001901905590871680865283862080546001019055868652600290945282852080549092168417909155905184937fddf252ad1be2c89b69c2b068fc378daa952ba7f163c4a11628f55a4df523b3ef91a4505050565b6007546001600160a01b03163314610af45760405162461bcd60e51b815260206004820181905260248201527f4f776e61626c653a2063616c6c6572206973206e6f7420746865206f776e65726044820152606401610587565b600061115a8284611dc7565b9392505050565b600061115a8284611df4565b600780546001600160a01b038381166001600160a01b0319831681179093556040519116919082907f8be0079c531659141344cd1fd0a4f28419497f9722a3daafe3b4186f6b6457e090600090a35050565b816001600160a01b0316836001600160a01b031614156112215760405162461bcd60e51b815260206004820152601960248201527f4552433732313a20617070726f766520746f2063616c6c6572000000000000006044820152606401610587565b6001600160a01b03838116600081815260056020908152604080832094871680845294825291829020805460ff191686151590811790915591519182527f17307eab39ab6107e8899845ad3d59bd9653f200f220920489ca2b5937696c31910160405180910390a3505050565b611299848484610f90565b6112a5848484846113e8565b610c1a5760405162461bcd60e51b815260040161058790611e16565b60606112cc82610e45565b60006112e360408051602081019091526000815290565b90506000815111611303576040518060200160405280600081525061115a565b8061130d846114e6565b60405160200161131e929190611cf9565b6040516020818303038152906040529392505050565b6106e1828260405180602001604052806000815250611583565b6000828152600260205260409020546001600160a01b03166113c95760405162461bcd60e51b815260206004820152602e60248201527f45524337323155524953746f726167653a2055524920736574206f66206e6f6e60448201526d32bc34b9ba32b73a103a37b5b2b760911b6064820152608401610587565b6000828152600660209081526040909120825161062892840190611819565b60006001600160a01b0384163b156114db57604051630a85bd0160e11b81526001600160a01b0385169063150b7a029061142c903390899088908890600401611e68565b6020604051808303816000875af1925050508015611467575060408051601f3d908101601f1916820190925261146491810190611ea5565b60015b6114c1573d808015611495576040519150601f19603f3d011682016040523d82523d6000602084013e61149a565b606091505b5080516114b95760405162461bcd60e51b815260040161058790611e16565b805181602001fd5b6001600160e01b031916630a85bd0160e11b149050610d29565b506001949350505050565b606060006114f3836115b6565b600101905060008167ffffffffffffffff81111561151357611513611a64565b6040519080825280601f01601f19166020018201604052801561153d576020820181803683370190505b5090508181016020015b600019016f181899199a1a9b1b9c1cb0b131b232b360811b600a86061a8153600a85049450846115765761157b565b611547565b509392505050565b61158d838361168e565b61159a60008484846113e8565b6106285760405162461bcd60e51b815260040161058790611e16565b60008072184f03e93ff9f4daa797ed6e38ed64bf6a1f0160401b83106115f55772184f03e93ff9f4daa797ed6e38ed64bf6a1f0160401b830492506040015b6d04ee2d6d415b85acef81000000008310611621576d04ee2d6d415b85acef8100000000830492506020015b662386f26fc10000831061163f57662386f26fc10000830492506010015b6305f5e1008310611657576305f5e100830492506008015b612710831061166b57612710830492506004015b6064831061167d576064830492506002015b600a83106104535760010192915050565b6001600160a01b0382166116e45760405162461bcd60e51b815260206004820181905260248201527f4552433732313a206d696e7420746f20746865207a65726f20616464726573736044820152606401610587565b6000818152600260205260409020546001600160a01b0316156117495760405162461bcd60e51b815260206004820152601c60248201527f4552433732313a20746f6b656e20616c7265616479206d696e746564000000006044820152606401610587565b6000818152600260205260409020546001600160a01b0316156117ae5760405162461bcd60e51b815260206004820152601c60248201527f4552433732313a20746f6b656e20616c7265616479206d696e746564000000006044820152606401610587565b6001600160a01b038216600081815260036020908152604080832080546001019055848352600290915280822080546001600160a01b0319168417905551839291907fddf252ad1be2c89b69c2b068fc378daa952ba7f163c4a11628f55a4df523b3ef908290a45050565b82805461182590611bfb565b90600052602060002090601f016020900481019282611847576000855561188d565b82601f1061186057805160ff191683800117855561188d565b8280016001018555821561188d579182015b8281111561188d578251825591602001919060010190611872565b5061189992915061189d565b5090565b5b80821115611899576000815560010161189e565b6001600160e01b031981168114610e4257600080fd5b6000602082840312156118da57600080fd5b813561115a816118b2565b60005b838110156119005781810151838201526020016118e8565b83811115610c1a5750506000910152565b600081518084526119298160208601602086016118e5565b601f01601f19169290920160200192915050565b60208152600061115a6020830184611911565b60006020828403121561196257600080fd5b5035919050565b80356001600160a01b038116811461198057600080fd5b919050565b6000806040838503121561199857600080fd5b6119a183611969565b946020939093013593505050565b6000806000606084860312156119c457600080fd5b6119cd84611969565b92506119db60208501611969565b9150604084013590509250925092565b6000602082840312156119fd57600080fd5b61115a82611969565b60008060408385031215611a1957600080fd5b50508035926020909101359150565b60008060408385031215611a3b57600080fd5b611a4483611969565b915060208301358015158114611a5957600080fd5b809150509250929050565b634e487b7160e01b600052604160045260246000fd5b60008060008060808587031215611a9057600080fd5b611a9985611969565b9350611aa760208601611969565b925060408501359150606085013567ffffffffffffffff80821115611acb57600080fd5b818701915087601f830112611adf57600080fd5b813581811115611af157611af1611a64565b604051601f8201601f19908116603f01168101908382118183101715611b1957611b19611a64565b816040528281528a6020848701011115611b3257600080fd5b82602086016020830137600060208483010152809550505050505092959194509250565b60008060208385031215611b6957600080fd5b823567ffffffffffffffff80821115611b8157600080fd5b818501915085601f830112611b9557600080fd5b813581811115611ba457600080fd5b866020828501011115611bb657600080fd5b60209290920196919550909350505050565b60008060408385031215611bdb57600080fd5b611be483611969565b9150611bf260208401611969565b90509250929050565b600181811c90821680611c0f57607f821691505b60208210811415611c3057634e487b7160e01b600052602260045260246000fd5b50919050565b6020808252602d908201527f4552433732313a2063616c6c6572206973206e6f7420746f6b656e206f776e6560408201526c1c881bdc88185c1c1c9bdd9959609a1b606082015260800190565b60208082526022908201527f4e46544d61726b65743a206e6674206e6f74206c697374656420666f722073616040820152616c6560f01b606082015260800190565b9384526001600160a01b0392831660208501529116604083015260a060608301819052600090830152608082015260c00190565b60008351611d0b8184602088016118e5565b835190830190611d1f8183602088016118e5565b01949350505050565b8681526001600160a01b0386811660208301528516604082015260a06060820181905281018390526000838560c0840137600060c0858401015260c0601f19601f8601168301019050826080830152979650505050505050565b60208082526025908201527f4552433732313a207472616e736665722066726f6d20696e636f72726563742060408201526437bbb732b960d91b606082015260800190565b6000816000190483118215151615611def57634e487b7160e01b600052601160045260246000fd5b500290565b600082611e1157634e487b7160e01b600052601260045260246000fd5b500490565b60208082526032908201527f4552433732313a207472616e7366657220746f206e6f6e20455243373231526560408201527131b2b4bb32b91034b6b83632b6b2b73a32b960711b606082015260800190565b6001600160a01b0385811682528416602082015260408101839052608060608201819052600090611e9b90830184611911565b9695505050505050565b600060208284031215611eb757600080fd5b815161115a816118b256fe705332a8918666802fc1504f63ff1f002a5f6cedd30d59ad7ae0b5281aeb8dcaa2646970667358221220b371a73ebe50383833c16bb47e6b7ceb5762d6959c66e7d6773e62339676266264736f6c634300080b0033",
  "linkReferences": {},
  "deployedLinkReferences": {}
}