{
  "_format": "hh-sol-artifact-1",
  "contractName": "Collection",
  "sourceName": "contracts/NFT Collection.sol",
  "abi": [
    {
      "inputs": [],
      "stateMutability": "nonpayable",
      "type": "constructor"
    },
    {
      "anonymous": false,
      "inputs": [
        {
          "indexed": true,
          "internalType": "address",
          "name": "owner",
          "type": "address"
        },
        {
          "indexed": true,
          "internalType": "address",
          "name": "approved",
          "type": "address"
        },
        {
          "indexed": true,
          "internalType": "uint256",
          "name": "tokenId",
          "type": "uint256"
        }
      ],
      "name": "Approval",
      "type": "event"
    },
    {
      "anonymous": false,
      "inputs": [
        {
          "indexed": true,
          "internalType": "address",
          "name": "owner",
          "type": "address"
        },
        {
          "indexed": true,
          "internalType": "address",
          "name": "operator",
          "type": "address"
        },
        {
          "indexed": false,
          "internalType": "bool",
          "name": "approved",
          "type": "bool"
        }
      ],
      "name": "ApprovalForAll",
      "type": "event"
    },
    {
      "anonymous": false,
      "inputs": [
        {
          "indexed": true,
          "internalType": "address",
          "name": "previousOwner",
          "type": "address"
        },
        {
          "indexed": true,
          "internalType": "address",
          "name": "newOwner",
          "type": "address"
        }
      ],
      "name": "OwnershipTransferred",
      "type": "event"
    },
    {
      "anonymous": false,
      "inputs": [
        {
          "indexed": true,
          "internalType": "address",
          "name": "from",
          "type": "address"
        },
        {
          "indexed": true,
          "internalType": "address",
          "name": "to",
          "type": "address"
        },
        {
          "indexed": true,
          "internalType": "uint256",
          "name": "tokenId",
          "type": "uint256"
        }
      ],
      "name": "Transfer",
      "type": "event"
    },
    {
      "inputs": [
        {
          "internalType": "address",
          "name": "to",
          "type": "address"
        },
        {
          "internalType": "uint256",
          "name": "tokenId",
          "type": "uint256"
        }
      ],
      "name": "approve",
      "outputs": [],
      "stateMutability": "nonpayable",
      "type": "function"
    },
    {
      "inputs": [
        {
          "internalType": "address",
          "name": "owner",
          "type": "address"
        }
      ],
      "name": "balanceOf",
      "outputs": [
        {
          "internalType": "uint256",
          "name": "",
          "type": "uint256"
        }
      ],
      "stateMutability": "view",
      "type": "function"
    },
    {
      "inputs": [],
      "name": "baseExtension",
      "outputs": [
        {
          "internalType": "string",
          "name": "",
          "type": "string"
        }
      ],
      "stateMutability": "view",
      "type": "function"
    },
    {
      "inputs": [],
      "name": "baseURI",
      "outputs": [
        {
          "internalType": "string",
          "name": "",
          "type": "string"
        }
      ],
      "stateMutability": "view",
      "type": "function"
    },
    {
      "inputs": [
        {
          "internalType": "uint256",
          "name": "tokenId",
          "type": "uint256"
        }
      ],
      "name": "getApproved",
      "outputs": [
        {
          "internalType": "address",
          "name": "",
          "type": "address"
        }
      ],
      "stateMutability": "view",
      "type": "function"
    },
    {
      "inputs": [
        {
          "internalType": "address",
          "name": "owner",
          "type": "address"
        },
        {
          "internalType": "address",
          "name": "operator",
          "type": "address"
        }
      ],
      "name": "isApprovedForAll",
      "outputs": [
        {
          "internalType": "bool",
          "name": "",
          "type": "bool"
        }
      ],
      "stateMutability": "view",
      "type": "function"
    },
    {
      "inputs": [],
      "name": "maxMintAmount",
      "outputs": [
        {
          "internalType": "uint256",
          "name": "",
          "type": "uint256"
        }
      ],
      "stateMutability": "view",
      "type": "function"
    },
    {
      "inputs": [],
      "name": "maxSupply",
      "outputs": [
        {
          "internalType": "uint256",
          "name": "",
          "type": "uint256"
        }
      ],
      "stateMutability": "view",
      "type": "function"
    },
    {
      "inputs": [
        {
          "internalType": "address",
          "name": "_to",
          "type": "address"
        },
        {
          "internalType": "uint256",
          "name": "_mintAmount",
          "type": "uint256"
        }
      ],
      "name": "mint",
      "outputs": [],
      "stateMutability": "payable",
      "type": "function"
    },
    {
      "inputs": [],
      "name": "name",
      "outputs": [
        {
          "internalType": "string",
          "name": "",
          "type": "string"
        }
      ],
      "stateMutability": "view",
      "type": "function"
    },
    {
      "inputs": [],
      "name": "owner",
      "outputs": [
        {
          "internalType": "address",
          "name": "",
          "type": "address"
        }
      ],
      "stateMutability": "view",
      "type": "function"
    },
    {
      "inputs": [
        {
          "internalType": "uint256",
          "name": "tokenId",
          "type": "uint256"
        }
      ],
      "name": "ownerOf",
      "outputs": [
        {
          "internalType": "address",
          "name": "",
          "type": "address"
        }
      ],
      "stateMutability": "view",
      "type": "function"
    },
    {
      "inputs": [
        {
          "internalType": "bool",
          "name": "_state",
          "type": "bool"
        }
      ],
      "name": "pause",
      "outputs": [],
      "stateMutability": "nonpayable",
      "type": "function"
    },
    {
      "inputs": [],
      "name": "paused",
      "outputs": [
        {
          "internalType": "bool",
          "name": "",
          "type": "bool"
        }
      ],
      "stateMutability": "view",
      "type": "function"
    },
    {
      "inputs": [],
      "name": "renounceOwnership",
      "outputs": [],
      "stateMutability": "nonpayable",
      "type": "function"
    },
    {
      "inputs": [
        {
          "internalType": "address",
          "name": "from",
          "type": "address"
        },
        {
          "internalType": "address",
          "name": "to",
          "type": "address"
        },
        {
          "internalType": "uint256",
          "name": "tokenId",
          "type": "uint256"
        }
      ],
      "name": "safeTransferFrom",
      "outputs": [],
      "stateMutability": "nonpayable",
      "type": "function"
    },
    {
      "inputs": [
        {
          "internalType": "address",
          "name": "from",
          "type": "address"
        },
        {
          "internalType": "address",
          "name": "to",
          "type": "address"
        },
        {
          "internalType": "uint256",
          "name": "tokenId",
          "type": "uint256"
        },
        {
          "internalType": "bytes",
          "name": "data",
          "type": "bytes"
        }
      ],
      "name": "safeTransferFrom",
      "outputs": [],
      "stateMutability": "nonpayable",
      "type": "function"
    },
    {
      "inputs": [
        {
          "internalType": "address",
          "name": "operator",
          "type": "address"
        },
        {
          "internalType": "bool",
          "name": "approved",
          "type": "bool"
        }
      ],
      "name": "setApprovalForAll",
      "outputs": [],
      "stateMutability": "nonpayable",
      "type": "function"
    },
    {
      "inputs": [
        {
          "internalType": "string",
          "name": "_newBaseExtension",
          "type": "string"
        }
      ],
      "name": "setBaseExtension",
      "outputs": [],
      "stateMutability": "nonpayable",
      "type": "function"
    },
    {
      "inputs": [
        {
          "internalType": "string",
          "name": "_newBaseURI",
          "type": "string"
        }
      ],
      "name": "setBaseURI",
      "outputs": [],
      "stateMutability": "nonpayable",
      "type": "function"
    },
    {
      "inputs": [
        {
          "internalType": "uint256",
          "name": "_newmaxMintAmount",
          "type": "uint256"
        }
      ],
      "name": "setmaxMintAmount",
      "outputs": [],
      "stateMutability": "nonpayable",
      "type": "function"
    },
    {
      "inputs": [
        {
          "internalType": "bytes4",
          "name": "interfaceId",
          "type": "bytes4"
        }
      ],
      "name": "supportsInterface",
      "outputs": [
        {
          "internalType": "bool",
          "name": "",
          "type": "bool"
        }
      ],
      "stateMutability": "view",
      "type": "function"
    },
    {
      "inputs": [],
      "name": "symbol",
      "outputs": [
        {
          "internalType": "string",
          "name": "",
          "type": "string"
        }
      ],
      "stateMutability": "view",
      "type": "function"
    },
    {
      "inputs": [
        {
          "internalType": "uint256",
          "name": "index",
          "type": "uint256"
        }
      ],
      "name": "tokenByIndex",
      "outputs": [
        {
          "internalType": "uint256",
          "name": "",
          "type": "uint256"
        }
      ],
      "stateMutability": "view",
      "type": "function"
    },
    {
      "inputs": [
        {
          "internalType": "address",
          "name": "owner",
          "type": "address"
        },
        {
          "internalType": "uint256",
          "name": "index",
          "type": "uint256"
        }
      ],
      "name": "tokenOfOwnerByIndex",
      "outputs": [
        {
          "internalType": "uint256",
          "name": "",
          "type": "uint256"
        }
      ],
      "stateMutability": "view",
      "type": "function"
    },
    {
      "inputs": [
        {
          "internalType": "uint256",
          "name": "tokenId",
          "type": "uint256"
        }
      ],
      "name": "tokenURI",
      "outputs": [
        {
          "internalType": "string",
          "name": "",
          "type": "string"
        }
      ],
      "stateMutability": "view",
      "type": "function"
    },
    {
      "inputs": [],
      "name": "totalSupply",
      "outputs": [
        {
          "internalType": "uint256",
          "name": "",
          "type": "uint256"
        }
      ],
      "stateMutability": "view",
      "type": "function"
    },
    {
      "inputs": [
        {
          "internalType": "address",
          "name": "from",
          "type": "address"
        },
        {
          "internalType": "address",
          "name": "to",
          "type": "address"
        },
        {
          "internalType": "uint256",
          "name": "tokenId",
          "type": "uint256"
        }
      ],
      "name": "transferFrom",
      "outputs": [],
      "stateMutability": "nonpayable",
      "type": "function"
    },
    {
      "inputs": [
        {
          "internalType": "address",
          "name": "newOwner",
          "type": "address"
        }
      ],
      "name": "transferOwnership",
      "outputs": [],
      "stateMutability": "nonpayable",
      "type": "function"
    },
    {
      "inputs": [
        {
          "internalType": "address",
          "name": "_owner",
          "type": "address"
        }
      ],
      "name": "walletOfOwner",
      "outputs": [
        {
          "internalType": "uint256[]",
          "name": "",
          "type": "uint256[]"
        }
      ],
      "stateMutability": "view",
      "type": "function"
    },
    {
      "inputs": [],
      "name": "withdraw",
      "outputs": [],
      "stateMutability": "payable",
      "type": "function"
    }
  ],
  "bytecode": "0x60c06040526005608081905264173539b7b760d91b60a09081526200002891600c91906200013b565b506103e8600d556005600e55600f805460ff191690553480156200004b57600080fd5b50604080518082018252601881527f5065707065726c796c204e465420436f6c6c656374696f6e000000000000000060208083019182528351808501909452600384526214141360ea1b908401528151919291620000ac916000916200013b565b508051620000c29060019060208401906200013b565b505050620000df620000d9620000e560201b60201c565b620000e9565b6200021e565b3390565b600a80546001600160a01b038381166001600160a01b0319831681179093556040519116919082907f8be0079c531659141344cd1fd0a4f28419497f9722a3daafe3b4186f6b6457e090600090a35050565b8280546200014990620001e1565b90600052602060002090601f0160209004810192826200016d5760008555620001b8565b82601f106200018857805160ff1916838001178555620001b8565b82800160010185558215620001b8579182015b82811115620001b85782518255916020019190600101906200019b565b50620001c6929150620001ca565b5090565b5b80821115620001c65760008155600101620001cb565b600181811c90821680620001f657607f821691505b602082108114156200021857634e487b7160e01b600052602260045260246000fd5b50919050565b612148806200022e6000396000f3fe6080604052600436106101d85760003560e01c80635c975abb11610102578063a22cb46511610095578063d5abeb0111610064578063d5abeb0114610517578063da3ef23f1461052d578063e985e9c51461054d578063f2fde38b1461059657600080fd5b8063a22cb465146104a2578063b88d4fde146104c2578063c6682862146104e2578063c87b56dd146104f757600080fd5b8063715018a6116100d1578063715018a61461043a5780637f00c7a61461044f5780638da5cb5b1461046f57806395d89b411461048d57600080fd5b80635c975abb146103cb5780636352211e146103e55780636c0360eb1461040557806370a082311461041a57600080fd5b806323b872dd1161017a57806342842e0e1161014957806342842e0e1461033e578063438b63001461035e5780634f6ccce71461038b57806355f804b3146103ab57600080fd5b806323b872dd146102e35780632f745c59146103035780633ccfd60b1461032357806340c10f191461032b57600080fd5b8063081812fc116101b6578063081812fc14610256578063095ea7b31461028e57806318160ddd146102ae578063239c70ae146102cd57600080fd5b806301ffc9a7146101dd57806302329a291461021257806306fdde0314610234575b600080fd5b3480156101e957600080fd5b506101fd6101f8366004611ab8565b6105b6565b60405190151581526020015b60405180910390f35b34801561021e57600080fd5b5061023261022d366004611aea565b6105e1565b005b34801561024057600080fd5b506102496105fc565b6040516102099190611b5d565b34801561026257600080fd5b50610276610271366004611b70565b61068e565b6040516001600160a01b039091168152602001610209565b34801561029a57600080fd5b506102326102a9366004611ba0565b6106b5565b3480156102ba57600080fd5b506008545b604051908152602001610209565b3480156102d957600080fd5b506102bf600e5481565b3480156102ef57600080fd5b506102326102fe366004611bca565b6107d0565b34801561030f57600080fd5b506102bf61031e366004611ba0565b610801565b610232610897565b610232610339366004611ba0565b6108c5565b34801561034a57600080fd5b50610232610359366004611bca565b61094c565b34801561036a57600080fd5b5061037e610379366004611c06565b610967565b6040516102099190611c21565b34801561039757600080fd5b506102bf6103a6366004611b70565b610a09565b3480156103b757600080fd5b506102326103c6366004611cf1565b610a9c565b3480156103d757600080fd5b50600f546101fd9060ff1681565b3480156103f157600080fd5b50610276610400366004611b70565b610abb565b34801561041157600080fd5b50610249610b1b565b34801561042657600080fd5b506102bf610435366004611c06565b610ba9565b34801561044657600080fd5b50610232610c2f565b34801561045b57600080fd5b5061023261046a366004611b70565b610c41565b34801561047b57600080fd5b50600a546001600160a01b0316610276565b34801561049957600080fd5b50610249610c4e565b3480156104ae57600080fd5b506102326104bd366004611d3a565b610c5d565b3480156104ce57600080fd5b506102326104dd366004611d6d565b610c68565b3480156104ee57600080fd5b50610249610c9a565b34801561050357600080fd5b50610249610512366004611b70565b610ca7565b34801561052357600080fd5b506102bf600d5481565b34801561053957600080fd5b50610232610548366004611cf1565b610d85565b34801561055957600080fd5b506101fd610568366004611de9565b6001600160a01b03918216600090815260056020908152604080832093909416825291909152205460ff1690565b3480156105a257600080fd5b506102326105b1366004611c06565b610da0565b60006001600160e01b0319821663780e9d6360e01b14806105db57506105db82610e19565b92915050565b6105e9610e69565b600f805460ff1916911515919091179055565b60606000805461060b90611e13565b80601f016020809104026020016040519081016040528092919081815260200182805461063790611e13565b80156106845780601f1061065957610100808354040283529160200191610684565b820191906000526020600020905b81548152906001019060200180831161066757829003601f168201915b5050505050905090565b600061069982610ec3565b506000908152600460205260409020546001600160a01b031690565b60006106c082610abb565b9050806001600160a01b0316836001600160a01b031614156107335760405162461bcd60e51b815260206004820152602160248201527f4552433732313a20617070726f76616c20746f2063757272656e74206f776e656044820152603960f91b60648201526084015b60405180910390fd5b336001600160a01b038216148061074f575061074f8133610568565b6107c15760405162461bcd60e51b815260206004820152603d60248201527f4552433732313a20617070726f76652063616c6c6572206973206e6f7420746f60448201527f6b656e206f776e6572206f7220617070726f76656420666f7220616c6c000000606482015260840161072a565b6107cb8383610f22565b505050565b6107da3382610f90565b6107f65760405162461bcd60e51b815260040161072a90611e4e565b6107cb83838361100f565b600061080c83610ba9565b821061086e5760405162461bcd60e51b815260206004820152602b60248201527f455243373231456e756d657261626c653a206f776e657220696e646578206f7560448201526a74206f6620626f756e647360a81b606482015260840161072a565b506001600160a01b03919091166000908152600660209081526040808320938352929052205490565b61089f610e69565b60405133904780156108fc02916000818181858888f193505050506108c357600080fd5b565b60006108d060085490565b600f5490915060ff16156108e357600080fd5b600082116108f057600080fd5b600e548211156108ff57600080fd5b600d5461090c8383611eb1565b111561091757600080fd5b60015b828111610946576109348461092f8385611eb1565b611180565b8061093e81611ec9565b91505061091a565b50505050565b6107cb83838360405180602001604052806000815250610c68565b6060600061097483610ba9565b905060008167ffffffffffffffff81111561099157610991611c65565b6040519080825280602002602001820160405280156109ba578160200160208202803683370190505b50905060005b82811015610a01576109d28582610801565b8282815181106109e4576109e4611ee4565b6020908102919091010152806109f981611ec9565b9150506109c0565b509392505050565b6000610a1460085490565b8210610a775760405162461bcd60e51b815260206004820152602c60248201527f455243373231456e756d657261626c653a20676c6f62616c20696e646578206f60448201526b7574206f6620626f756e647360a01b606482015260840161072a565b60088281548110610a8a57610a8a611ee4565b90600052602060002001549050919050565b610aa4610e69565b8051610ab790600b906020840190611a09565b5050565b6000818152600260205260408120546001600160a01b0316806105db5760405162461bcd60e51b8152602060048201526018602482015277115490cdcc8c4e881a5b9d985b1a59081d1bdad95b88125160421b604482015260640161072a565b600b8054610b2890611e13565b80601f0160208091040260200160405190810160405280929190818152602001828054610b5490611e13565b8015610ba15780601f10610b7657610100808354040283529160200191610ba1565b820191906000526020600020905b815481529060010190602001808311610b8457829003601f168201915b505050505081565b60006001600160a01b038216610c135760405162461bcd60e51b815260206004820152602960248201527f4552433732313a2061646472657373207a65726f206973206e6f7420612076616044820152683634b21037bbb732b960b91b606482015260840161072a565b506001600160a01b031660009081526003602052604090205490565b610c37610e69565b6108c3600061119a565b610c49610e69565b600e55565b60606001805461060b90611e13565b610ab73383836111ec565b610c723383610f90565b610c8e5760405162461bcd60e51b815260040161072a90611e4e565b610946848484846112bb565b600c8054610b2890611e13565b6000818152600260205260409020546060906001600160a01b0316610d265760405162461bcd60e51b815260206004820152602f60248201527f4552433732314d657461646174613a2055524920717565727920666f72206e6f60448201526e3732bc34b9ba32b73a103a37b5b2b760891b606482015260840161072a565b6000610d306112ee565b90506000815111610d505760405180602001604052806000815250610d7e565b80610d5a8461130e565b600c604051602001610d6e93929190611efa565b6040516020818303038152906040525b9392505050565b610d8d610e69565b8051610ab790600c906020840190611a09565b610da8610e69565b6001600160a01b038116610e0d5760405162461bcd60e51b815260206004820152602660248201527f4f776e61626c653a206e6577206f776e657220697320746865207a65726f206160448201526564647265737360d01b606482015260840161072a565b610e168161119a565b50565b60006001600160e01b031982166380ac58cd60e01b1480610e4a57506001600160e01b03198216635b5e139f60e01b145b806105db57506301ffc9a760e01b6001600160e01b03198316146105db565b600a546001600160a01b031633146108c35760405162461bcd60e51b815260206004820181905260248201527f4f776e61626c653a2063616c6c6572206973206e6f7420746865206f776e6572604482015260640161072a565b6000818152600260205260409020546001600160a01b0316610e165760405162461bcd60e51b8152602060048201526018602482015277115490cdcc8c4e881a5b9d985b1a59081d1bdad95b88125160421b604482015260640161072a565b600081815260046020526040902080546001600160a01b0319166001600160a01b0384169081179091558190610f5782610abb565b6001600160a01b03167f8c5be1e5ebec7d5bd14f71427d1e84f3dd0314c0f7b2291e5b200ac8c7c3b92560405160405180910390a45050565b600080610f9c83610abb565b9050806001600160a01b0316846001600160a01b03161480610fe357506001600160a01b0380821660009081526005602090815260408083209388168352929052205460ff165b806110075750836001600160a01b0316610ffc8461068e565b6001600160a01b0316145b949350505050565b826001600160a01b031661102282610abb565b6001600160a01b0316146110485760405162461bcd60e51b815260040161072a90611fbe565b6001600160a01b0382166110aa5760405162461bcd60e51b8152602060048201526024808201527f4552433732313a207472616e7366657220746f20746865207a65726f206164646044820152637265737360e01b606482015260840161072a565b6110b783838360016113a3565b826001600160a01b03166110ca82610abb565b6001600160a01b0316146110f05760405162461bcd60e51b815260040161072a90611fbe565b600081815260046020908152604080832080546001600160a01b03199081169091556001600160a01b0387811680865260038552838620805460001901905590871680865283862080546001019055868652600290945282852080549092168417909155905184937fddf252ad1be2c89b69c2b068fc378daa952ba7f163c4a11628f55a4df523b3ef91a4505050565b610ab78282604051806020016040528060008152506114d7565b600a80546001600160a01b038381166001600160a01b0319831681179093556040519116919082907f8be0079c531659141344cd1fd0a4f28419497f9722a3daafe3b4186f6b6457e090600090a35050565b816001600160a01b0316836001600160a01b0316141561124e5760405162461bcd60e51b815260206004820152601960248201527f4552433732313a20617070726f766520746f2063616c6c657200000000000000604482015260640161072a565b6001600160a01b03838116600081815260056020908152604080832094871680845294825291829020805460ff191686151590811790915591519182527f17307eab39ab6107e8899845ad3d59bd9653f200f220920489ca2b5937696c31910160405180910390a3505050565b6112c684848461100f565b6112d28484848461150a565b6109465760405162461bcd60e51b815260040161072a90612003565b60606040518060600160405280603681526020016120dd60369139905090565b6060600061131b83611608565b600101905060008167ffffffffffffffff81111561133b5761133b611c65565b6040519080825280601f01601f191660200182016040528015611365576020820181803683370190505b5090508181016020015b600019016f181899199a1a9b1b9c1cb0b131b232b360811b600a86061a8153600a850494508461139e57610a01565b61136f565b60018111156114125760405162461bcd60e51b815260206004820152603560248201527f455243373231456e756d657261626c653a20636f6e7365637574697665207472604482015274185b9cd9995c9cc81b9bdd081cdd5c1c1bdc9d1959605a1b606482015260840161072a565b816001600160a01b03851661146e5761146981600880546000838152600960205260408120829055600182018355919091527ff3f7a9fe364faab93b216da50a3214154f22a0a2b415b23a84c8169e8b636ee30155565b611491565b836001600160a01b0316856001600160a01b0316146114915761149185826116e0565b6001600160a01b0384166114ad576114a88161177d565b6114d0565b846001600160a01b0316846001600160a01b0316146114d0576114d0848261182c565b5050505050565b6114e18383611870565b6114ee600084848461150a565b6107cb5760405162461bcd60e51b815260040161072a90612003565b60006001600160a01b0384163b156115fd57604051630a85bd0160e11b81526001600160a01b0385169063150b7a029061154e903390899088908890600401612055565b6020604051808303816000875af1925050508015611589575060408051601f3d908101601f1916820190925261158691810190612092565b60015b6115e3573d8080156115b7576040519150601f19603f3d011682016040523d82523d6000602084013e6115bc565b606091505b5080516115db5760405162461bcd60e51b815260040161072a90612003565b805181602001fd5b6001600160e01b031916630a85bd0160e11b149050611007565b506001949350505050565b60008072184f03e93ff9f4daa797ed6e38ed64bf6a1f0160401b83106116475772184f03e93ff9f4daa797ed6e38ed64bf6a1f0160401b830492506040015b6d04ee2d6d415b85acef81000000008310611673576d04ee2d6d415b85acef8100000000830492506020015b662386f26fc10000831061169157662386f26fc10000830492506010015b6305f5e10083106116a9576305f5e100830492506008015b61271083106116bd57612710830492506004015b606483106116cf576064830492506002015b600a83106105db5760010192915050565b600060016116ed84610ba9565b6116f791906120af565b60008381526007602052604090205490915080821461174a576001600160a01b03841660009081526006602090815260408083208584528252808320548484528184208190558352600790915290208190555b5060009182526007602090815260408084208490556001600160a01b039094168352600681528383209183525290812055565b60085460009061178f906001906120af565b600083815260096020526040812054600880549394509092849081106117b7576117b7611ee4565b9060005260206000200154905080600883815481106117d8576117d8611ee4565b6000918252602080832090910192909255828152600990915260408082208490558582528120556008805480611810576118106120c6565b6001900381819060005260206000200160009055905550505050565b600061183783610ba9565b6001600160a01b039093166000908152600660209081526040808320868452825280832085905593825260079052919091209190915550565b6001600160a01b0382166118c65760405162461bcd60e51b815260206004820181905260248201527f4552433732313a206d696e7420746f20746865207a65726f2061646472657373604482015260640161072a565b6000818152600260205260409020546001600160a01b03161561192b5760405162461bcd60e51b815260206004820152601c60248201527f4552433732313a20746f6b656e20616c7265616479206d696e74656400000000604482015260640161072a565b6119396000838360016113a3565b6000818152600260205260409020546001600160a01b03161561199e5760405162461bcd60e51b815260206004820152601c60248201527f4552433732313a20746f6b656e20616c7265616479206d696e74656400000000604482015260640161072a565b6001600160a01b038216600081815260036020908152604080832080546001019055848352600290915280822080546001600160a01b0319168417905551839291907fddf252ad1be2c89b69c2b068fc378daa952ba7f163c4a11628f55a4df523b3ef908290a45050565b828054611a1590611e13565b90600052602060002090601f016020900481019282611a375760008555611a7d565b82601f10611a5057805160ff1916838001178555611a7d565b82800160010185558215611a7d579182015b82811115611a7d578251825591602001919060010190611a62565b50611a89929150611a8d565b5090565b5b80821115611a895760008155600101611a8e565b6001600160e01b031981168114610e1657600080fd5b600060208284031215611aca57600080fd5b8135610d7e81611aa2565b80358015158114611ae557600080fd5b919050565b600060208284031215611afc57600080fd5b610d7e82611ad5565b60005b83811015611b20578181015183820152602001611b08565b838111156109465750506000910152565b60008151808452611b49816020860160208601611b05565b601f01601f19169290920160200192915050565b602081526000610d7e6020830184611b31565b600060208284031215611b8257600080fd5b5035919050565b80356001600160a01b0381168114611ae557600080fd5b60008060408385031215611bb357600080fd5b611bbc83611b89565b946020939093013593505050565b600080600060608486031215611bdf57600080fd5b611be884611b89565b9250611bf660208501611b89565b9150604084013590509250925092565b600060208284031215611c1857600080fd5b610d7e82611b89565b6020808252825182820181905260009190848201906040850190845b81811015611c5957835183529284019291840191600101611c3d565b50909695505050505050565b634e487b7160e01b600052604160045260246000fd5b600067ffffffffffffffff80841115611c9657611c96611c65565b604051601f8501601f19908116603f01168101908282118183101715611cbe57611cbe611c65565b81604052809350858152868686011115611cd757600080fd5b858560208301376000602087830101525050509392505050565b600060208284031215611d0357600080fd5b813567ffffffffffffffff811115611d1a57600080fd5b8201601f81018413611d2b57600080fd5b61100784823560208401611c7b565b60008060408385031215611d4d57600080fd5b611d5683611b89565b9150611d6460208401611ad5565b90509250929050565b60008060008060808587031215611d8357600080fd5b611d8c85611b89565b9350611d9a60208601611b89565b925060408501359150606085013567ffffffffffffffff811115611dbd57600080fd5b8501601f81018713611dce57600080fd5b611ddd87823560208401611c7b565b91505092959194509250565b60008060408385031215611dfc57600080fd5b611e0583611b89565b9150611d6460208401611b89565b600181811c90821680611e2757607f821691505b60208210811415611e4857634e487b7160e01b600052602260045260246000fd5b50919050565b6020808252602d908201527f4552433732313a2063616c6c6572206973206e6f7420746f6b656e206f776e6560408201526c1c881bdc88185c1c1c9bdd9959609a1b606082015260800190565b634e487b7160e01b600052601160045260246000fd5b60008219821115611ec457611ec4611e9b565b500190565b6000600019821415611edd57611edd611e9b565b5060010190565b634e487b7160e01b600052603260045260246000fd5b600084516020611f0d8285838a01611b05565b855191840191611f208184848a01611b05565b8554920191600090600181811c9080831680611f3d57607f831692505b858310811415611f5b57634e487b7160e01b85526022600452602485fd5b808015611f6f5760018114611f8057611fad565b60ff19851688528388019550611fad565b60008b81526020902060005b85811015611fa55781548a820152908401908801611f8c565b505083880195505b50939b9a5050505050505050505050565b60208082526025908201527f4552433732313a207472616e736665722066726f6d20696e636f72726563742060408201526437bbb732b960d91b606082015260800190565b60208082526032908201527f4552433732313a207472616e7366657220746f206e6f6e20455243373231526560408201527131b2b4bb32b91034b6b83632b6b2b73a32b960711b606082015260800190565b6001600160a01b038581168252841660208201526040810183905260806060820181905260009061208890830184611b31565b9695505050505050565b6000602082840312156120a457600080fd5b8151610d7e81611aa2565b6000828210156120c1576120c1611e9b565b500390565b634e487b7160e01b600052603160045260246000fdfe697066733a2f2f516d59423575575a7166756e42713779576e616d54716f585742414869516f69724e4c6d75784d7a4454684868692fa264697066735822122090b6c24a8b0191b91efd48176632dd45d4da3b114fd4739e479a031dc48deaaf64736f6c634300080b0033",
  "linkReferences": {},
  "deployedLinkReferences": {}
}