{
  "_format": "hh-sol-artifact-1",
  "contractName": "NFTMarketResell",
  "sourceName": "contracts/NFT marketplaceSell.sol",
  "abi": [
    {
      "inputs": [
        {
          "internalType": "contract ERC721Enumerable",
          "name": "_nft",
          "type": "address"
        }
      ],
      "stateMutability": "nonpayable",
      "type": "constructor"
    },
    {
      "anonymous": false,
      "inputs": [
        {
          "indexed": true,
          "internalType": "uint256",
          "name": "tokenId",
          "type": "uint256"
        },
        {
          "indexed": false,
          "internalType": "address",
          "name": "seller",
          "type": "address"
        },
        {
          "indexed": false,
          "internalType": "address",
          "name": "holder",
          "type": "address"
        },
        {
          "indexed": false,
          "internalType": "uint256",
          "name": "price",
          "type": "uint256"
        },
        {
          "indexed": false,
          "internalType": "bool",
          "name": "sold",
          "type": "bool"
        }
      ],
      "name": "NFTListCreated",
      "type": "event"
    },
    {
      "anonymous": false,
      "inputs": [
        {
          "indexed": true,
          "internalType": "address",
          "name": "previousOwner",
          "type": "address"
        },
        {
          "indexed": true,
          "internalType": "address",
          "name": "newOwner",
          "type": "address"
        }
      ],
      "name": "OwnershipTransferred",
      "type": "event"
    },
    {
      "inputs": [
        {
          "internalType": "uint256",
          "name": "tokenId",
          "type": "uint256"
        }
      ],
      "name": "buyNft",
      "outputs": [],
      "stateMutability": "payable",
      "type": "function"
    },
    {
      "inputs": [
        {
          "internalType": "uint256",
          "name": "tokenId",
          "type": "uint256"
        }
      ],
      "name": "cancelSale",
      "outputs": [],
      "stateMutability": "nonpayable",
      "type": "function"
    },
    {
      "inputs": [],
      "name": "getListingFee",
      "outputs": [
        {
          "internalType": "uint256",
          "name": "",
          "type": "uint256"
        }
      ],
      "stateMutability": "view",
      "type": "function"
    },
    {
      "inputs": [
        {
          "internalType": "uint256",
          "name": "tokenId",
          "type": "uint256"
        }
      ],
      "name": "getPrice",
      "outputs": [
        {
          "internalType": "uint256",
          "name": "",
          "type": "uint256"
        }
      ],
      "stateMutability": "view",
      "type": "function"
    },
    {
      "inputs": [
        {
          "internalType": "uint256",
          "name": "tokenId",
          "type": "uint256"
        },
        {
          "internalType": "uint256",
          "name": "price",
          "type": "uint256"
        }
      ],
      "name": "listSale",
      "outputs": [],
      "stateMutability": "payable",
      "type": "function"
    },
    {
      "inputs": [],
      "name": "nftListings",
      "outputs": [
        {
          "components": [
            {
              "internalType": "uint256",
              "name": "tokenId",
              "type": "uint256"
            },
            {
              "internalType": "address payable",
              "name": "seller",
              "type": "address"
            },
            {
              "internalType": "address payable",
              "name": "holder",
              "type": "address"
            },
            {
              "internalType": "uint256",
              "name": "price",
              "type": "uint256"
            },
            {
              "internalType": "bool",
              "name": "sold",
              "type": "bool"
            }
          ],
          "internalType": "struct NFTMarketResell.List[]",
          "name": "",
          "type": "tuple[]"
        }
      ],
      "stateMutability": "view",
      "type": "function"
    },
    {
      "inputs": [
        {
          "internalType": "address",
          "name": "",
          "type": "address"
        },
        {
          "internalType": "address",
          "name": "from",
          "type": "address"
        },
        {
          "internalType": "uint256",
          "name": "",
          "type": "uint256"
        },
        {
          "internalType": "bytes",
          "name": "",
          "type": "bytes"
        }
      ],
      "name": "onERC721Received",
      "outputs": [
        {
          "internalType": "bytes4",
          "name": "",
          "type": "bytes4"
        }
      ],
      "stateMutability": "pure",
      "type": "function"
    },
    {
      "inputs": [],
      "name": "owner",
      "outputs": [
        {
          "internalType": "address",
          "name": "",
          "type": "address"
        }
      ],
      "stateMutability": "view",
      "type": "function"
    },
    {
      "inputs": [],
      "name": "renounceOwnership",
      "outputs": [],
      "stateMutability": "nonpayable",
      "type": "function"
    },
    {
      "inputs": [
        {
          "internalType": "address",
          "name": "newOwner",
          "type": "address"
        }
      ],
      "name": "transferOwnership",
      "outputs": [],
      "stateMutability": "nonpayable",
      "type": "function"
    },
    {
      "inputs": [
        {
          "internalType": "uint256",
          "name": "",
          "type": "uint256"
        }
      ],
      "name": "vaultItems",
      "outputs": [
        {
          "internalType": "uint256",
          "name": "tokenId",
          "type": "uint256"
        },
        {
          "internalType": "address payable",
          "name": "seller",
          "type": "address"
        },
        {
          "internalType": "address payable",
          "name": "holder",
          "type": "address"
        },
        {
          "internalType": "uint256",
          "name": "price",
          "type": "uint256"
        },
        {
          "internalType": "bool",
          "name": "sold",
          "type": "bool"
        }
      ],
      "stateMutability": "view",
      "type": "function"
    },
    {
      "inputs": [],
      "name": "withdraw",
      "outputs": [],
      "stateMutability": "payable",
      "type": "function"
    }
  ],
  "bytecode": "0x60806040526608e1bc9bf0400060035534801561001b57600080fd5b50604051610fe2380380610fe283398101604081905261003a916100cd565b60016000556100483361007b565b60028054336001600160a01b031991821617909155600580549091166001600160a01b03929092169190911790556100fd565b600180546001600160a01b038381166001600160a01b0319831681179093556040519116919082907f8be0079c531659141344cd1fd0a4f28419497f9722a3daafe3b4186f6b6457e090600090a35050565b6000602082840312156100df57600080fd5b81516001600160a01b03811681146100f657600080fd5b9392505050565b610ed68061010c6000396000f3fe6080604052600436106100a75760003560e01c8063715018a611610064578063715018a6146101cb5780638da5cb5b146101e0578063b8fe6abe14610208578063bd94b00514610227578063e757223014610247578063f2fde38b1461027757600080fd5b8063150b7a02146100ac5780631dfb091b146100ea578063243adbdd146101795780633ccfd60b1461018e5780635993b2fc1461019657806365699c9d146101b8575b600080fd5b3480156100b857600080fd5b506100cc6100c7366004610c7b565b610297565b6040516001600160e01b031990911681526020015b60405180910390f35b3480156100f657600080fd5b50610143610105366004610d1a565b60046020819052600091825260409091208054600182015460028301546003840154939094015491936001600160a01b039182169391169160ff1685565b604080519586526001600160a01b039485166020870152929093169184019190915260608301521515608082015260a0016100e1565b61018c610187366004610d1a565b610312565b005b61018c610497565b3480156101a257600080fd5b506101ab6104c5565b6040516100e19190610d33565b61018c6101c6366004610daf565b6106af565b3480156101d757600080fd5b5061018c6109bf565b3480156101ec57600080fd5b506001546040516001600160a01b0390911681526020016100e1565b34801561021457600080fd5b506003545b6040519081526020016100e1565b34801561023357600080fd5b5061018c610242366004610d1a565b6109d1565b34801561025357600080fd5b50610219610262366004610d1a565b60009081526004602052604090206003015490565b34801561028357600080fd5b5061018c610292366004610dd1565b610aea565b60006001600160a01b038516156103005760405162461bcd60e51b815260206004820152602260248201527f43616e6e6f742073656e64206e66747320746f205661756c74206469726563746044820152616c7960f01b60648201526084015b60405180910390fd5b50630a85bd0160e11b95945050505050565b61031a610b60565b6000818152600460205260409020600301543481146103915760405162461bcd60e51b815260206004820152602d60248201527f5472616e7366657220546f74616c20416d6f756e7420746f20636f6d706c657460448201526c32903a3930b739b0b1ba34b7b760991b60648201526084016102f7565b6000828152600460205260408082206001015490516001600160a01b03909116913480156108fc02929091818181858888f193505050501580156103d9573d6000803e3d6000fd5b506005546040516323b872dd60e01b8152306004820152336024820152604481018490526001600160a01b03909116906323b872dd90606401600060405180830381600087803b15801561042c57600080fd5b505af1158015610440573d6000803e3d6000fd5b505050600083815260046020819052604082209081018054838355600180840180546001600160a01b03199081169091556002850180549091169055600390930184905560ff191690559055506104949050565b50565b61049f610bba565b60405133904780156108fc02916000818181858888f193505050506104c357600080fd5b565b60606000600560009054906101000a90046001600160a01b03166001600160a01b03166318160ddd6040518163ffffffff1660e01b8152600401602060405180830381865afa15801561051c573d6000803e3d6000fd5b505050506040513d601f19601f820116820180604052508101906105409190610df5565b90506000808267ffffffffffffffff81111561055e5761055e610e0e565b6040519080825280602002602001820160405280156105b757816020015b6040805160a08101825260008082526020808301829052928201819052606082018190526080820152825260001990920191018161057c5790505b50905060005b838110156106a75730600460006105d5846001610e3a565b81526020810191909152604001600020600201546001600160a01b03161415610695576000610605826001610e3a565b600081815260046020818152604092839020835160a0810185528154815260018201546001600160a01b0390811693820193909352600282015490921693820193909352600383015460608201529082015460ff16151560808201528551929350909185908790811061067a5761067a610e52565b6020908102919091010152610690600186610e3a565b945050505b8061069f81610e68565b9150506105bd565b509392505050565b6106b7610b60565b6005546040516331a9108f60e11b81526004810184905233916001600160a01b031690636352211e90602401602060405180830381865afa158015610700573d6000803e3d6000fd5b505050506040513d601f19601f820116820180604052508101906107249190610e83565b6001600160a01b03161461076a5760405162461bcd60e51b815260206004820152600d60248201526c4e4654206e6f7420796f75727360981b60448201526064016102f7565b600082815260046020526040902054156107bb5760405162461bcd60e51b815260206004820152601260248201527113919508185b1c9958591e481b1a5cdd195960721b60448201526064016102f7565b6000811161080b5760405162461bcd60e51b815260206004820152601c60248201527f416d6f756e74206d75737420626520686967686572207468616e20300000000060448201526064016102f7565b60035434146108755760405162461bcd60e51b815260206004820152603060248201527f506c65617365207472616e7366657220302e303032352063727970746f20746f60448201526f20706179206c697374696e672066656560801b60648201526084016102f7565b6040805160a08101825283815233602080830182815230848601818152606086018881526000608088018181528b8252600496879052908990209751885593516001880180546001600160a01b03199081166001600160a01b03938416179091559251600289018054909416908216179092555160038701559151948301805460ff19169515159590951790945560055494516323b872dd60e01b81529182019290925260248101929092526044820185905291909116906323b872dd90606401600060405180830381600087803b15801561095057600080fd5b505af1158015610964573d6000803e3d6000fd5b505060408051338152306020820152908101849052600060608201528492507fb4d56b90073d0ff00f241bc47cb6a2575250588918394e7edd6b10bffb92c7e2915060800160405180910390a26109bb6001600055565b5050565b6109c7610bba565b6104c36000610c14565b6109d9610b60565b6000818152600460205260409020600101546001600160a01b03163314610a325760405162461bcd60e51b815260206004820152600d60248201526c4e4654206e6f7420796f75727360981b60448201526064016102f7565b6005546040516323b872dd60e01b8152306004820152336024820152604481018390526001600160a01b03909116906323b872dd90606401600060405180830381600087803b158015610a8457600080fd5b505af1158015610a98573d6000803e3d6000fd5b505050600082815260046020819052604082208281556001810180546001600160a01b03199081169091556002820180549091169055600381019290925501805460ff19169055506104946001600055565b610af2610bba565b6001600160a01b038116610b575760405162461bcd60e51b815260206004820152602660248201527f4f776e61626c653a206e6577206f776e657220697320746865207a65726f206160448201526564647265737360d01b60648201526084016102f7565b61049481610c14565b60026000541415610bb35760405162461bcd60e51b815260206004820152601f60248201527f5265656e7472616e637947756172643a207265656e7472616e742063616c6c0060448201526064016102f7565b6002600055565b6001546001600160a01b031633146104c35760405162461bcd60e51b815260206004820181905260248201527f4f776e61626c653a2063616c6c6572206973206e6f7420746865206f776e657260448201526064016102f7565b600180546001600160a01b038381166001600160a01b0319831681179093556040519116919082907f8be0079c531659141344cd1fd0a4f28419497f9722a3daafe3b4186f6b6457e090600090a35050565b6001600160a01b038116811461049457600080fd5b600080600080600060808688031215610c9357600080fd5b8535610c9e81610c66565b94506020860135610cae81610c66565b935060408601359250606086013567ffffffffffffffff80821115610cd257600080fd5b818801915088601f830112610ce657600080fd5b813581811115610cf557600080fd5b896020828501011115610d0757600080fd5b9699959850939650602001949392505050565b600060208284031215610d2c57600080fd5b5035919050565b602080825282518282018190526000919060409081850190868401855b82811015610da257815180518552868101516001600160a01b03908116888701528682015116868601526060808201519086015260809081015115159085015260a09093019290850190600101610d50565b5091979650505050505050565b60008060408385031215610dc257600080fd5b50508035926020909101359150565b600060208284031215610de357600080fd5b8135610dee81610c66565b9392505050565b600060208284031215610e0757600080fd5b5051919050565b634e487b7160e01b600052604160045260246000fd5b634e487b7160e01b600052601160045260246000fd5b60008219821115610e4d57610e4d610e24565b500190565b634e487b7160e01b600052603260045260246000fd5b6000600019821415610e7c57610e7c610e24565b5060010190565b600060208284031215610e9557600080fd5b8151610dee81610c6656fea2646970667358221220e42e62285570198737098054d845e9aafcef1cab8680ae9075d51daacec59eac64736f6c634300080b0033",
  "linkReferences": {},
  "deployedLinkReferences": {}
}